{
  "_format": "hh-sol-artifact-1",
  "contractName": "NFTMarketplace",
  "sourceName": "contracts/NFTMarketplace.sol",
  "abi": [
    {
      "inputs": [],
      "stateMutability": "nonpayable",
      "type": "constructor"
    },
    {
      "anonymous": false,
      "inputs": [
        {
          "indexed": true,
          "internalType": "address",
          "name": "owner",
          "type": "address"
        },
        {
          "indexed": true,
          "internalType": "address",
          "name": "approved",
          "type": "address"
        },
        {
          "indexed": true,
          "internalType": "uint256",
          "name": "tokenId",
          "type": "uint256"
        }
      ],
      "name": "Approval",
      "type": "event"
    },
    {
      "anonymous": false,
      "inputs": [
        {
          "indexed": true,
          "internalType": "address",
          "name": "owner",
          "type": "address"
        },
        {
          "indexed": true,
          "internalType": "address",
          "name": "operator",
          "type": "address"
        },
        {
          "indexed": false,
          "internalType": "bool",
          "name": "approved",
          "type": "bool"
        }
      ],
      "name": "ApprovalForAll",
      "type": "event"
    },
    {
      "anonymous": false,
      "inputs": [
        {
          "indexed": true,
          "internalType": "uint256",
          "name": "tokenId",
          "type": "uint256"
        },
        {
          "indexed": false,
          "internalType": "address",
          "name": "owner",
          "type": "address"
        },
        {
          "indexed": false,
          "internalType": "uint256",
          "name": "price",
          "type": "uint256"
        },
        {
          "indexed": false,
          "internalType": "uint256",
          "name": "state",
          "type": "uint256"
        }
      ],
      "name": "MarketItemCreated",
      "type": "event"
    },
    {
      "anonymous": false,
      "inputs": [
        {
          "indexed": true,
          "internalType": "address",
          "name": "from",
          "type": "address"
        },
        {
          "indexed": true,
          "internalType": "address",
          "name": "to",
          "type": "address"
        },
        {
          "indexed": true,
          "internalType": "uint256",
          "name": "tokenId",
          "type": "uint256"
        }
      ],
      "name": "Transfer",
      "type": "event"
    },
    {
      "inputs": [
        {
          "internalType": "address",
          "name": "to",
          "type": "address"
        },
        {
          "internalType": "uint256",
          "name": "tokenId",
          "type": "uint256"
        }
      ],
      "name": "approve",
      "outputs": [],
      "stateMutability": "nonpayable",
      "type": "function"
    },
    {
      "inputs": [
        {
          "internalType": "address",
          "name": "owner",
          "type": "address"
        }
      ],
      "name": "balanceOf",
      "outputs": [
        {
          "internalType": "uint256",
          "name": "",
          "type": "uint256"
        }
      ],
      "stateMutability": "view",
      "type": "function"
    },
    {
      "inputs": [
        {
          "internalType": "uint256",
          "name": "tokenId",
          "type": "uint256"
        }
      ],
      "name": "buyItem",
      "outputs": [],
      "stateMutability": "payable",
      "type": "function"
    },
    {
      "inputs": [
        {
          "internalType": "string",
          "name": "tokenURI",
          "type": "string"
        },
        {
          "internalType": "uint256",
          "name": "price",
          "type": "uint256"
        }
      ],
      "name": "createToken",
      "outputs": [
        {
          "internalType": "uint256",
          "name": "",
          "type": "uint256"
        }
      ],
      "stateMutability": "payable",
      "type": "function"
    },
    {
      "inputs": [],
      "name": "fetchMarketItems",
      "outputs": [
        {
          "components": [
            {
              "internalType": "uint256",
              "name": "tokenId",
              "type": "uint256"
            },
            {
              "internalType": "address payable",
              "name": "owner",
              "type": "address"
            },
            {
              "internalType": "uint256",
              "name": "price",
              "type": "uint256"
            },
            {
              "internalType": "uint256",
              "name": "state",
              "type": "uint256"
            }
          ],
          "internalType": "struct NFTMarketplace.MarketItem[]",
          "name": "",
          "type": "tuple[]"
        }
      ],
      "stateMutability": "view",
      "type": "function"
    },
    {
      "inputs": [],
      "name": "fetchMyNFTs",
      "outputs": [
        {
          "components": [
            {
              "internalType": "uint256",
              "name": "tokenId",
              "type": "uint256"
            },
            {
              "internalType": "address payable",
              "name": "owner",
              "type": "address"
            },
            {
              "internalType": "uint256",
              "name": "price",
              "type": "uint256"
            },
            {
              "internalType": "uint256",
              "name": "state",
              "type": "uint256"
            }
          ],
          "internalType": "struct NFTMarketplace.MarketItem[]",
          "name": "",
          "type": "tuple[]"
        }
      ],
      "stateMutability": "view",
      "type": "function"
    },
    {
      "inputs": [
        {
          "internalType": "uint256",
          "name": "tokenId",
          "type": "uint256"
        }
      ],
      "name": "getApproved",
      "outputs": [
        {
          "internalType": "address",
          "name": "",
          "type": "address"
        }
      ],
      "stateMutability": "view",
      "type": "function"
    },
    {
      "inputs": [
        {
          "internalType": "uint256",
          "name": "tokenId",
          "type": "uint256"
        }
      ],
      "name": "getItemState",
      "outputs": [
        {
          "internalType": "uint256",
          "name": "",
          "type": "uint256"
        }
      ],
      "stateMutability": "view",
      "type": "function"
    },
    {
      "inputs": [
        {
          "internalType": "address",
          "name": "owner",
          "type": "address"
        },
        {
          "internalType": "address",
          "name": "operator",
          "type": "address"
        }
      ],
      "name": "isApprovedForAll",
      "outputs": [
        {
          "internalType": "bool",
          "name": "",
          "type": "bool"
        }
      ],
      "stateMutability": "view",
      "type": "function"
    },
    {
      "inputs": [],
      "name": "name",
      "outputs": [
        {
          "internalType": "string",
          "name": "",
          "type": "string"
        }
      ],
      "stateMutability": "view",
      "type": "function"
    },
    {
      "inputs": [
        {
          "internalType": "uint256",
          "name": "tokenId",
          "type": "uint256"
        }
      ],
      "name": "ownerOf",
      "outputs": [
        {
          "internalType": "address",
          "name": "",
          "type": "address"
        }
      ],
      "stateMutability": "view",
      "type": "function"
    },
    {
      "inputs": [
        {
          "internalType": "uint256",
          "name": "tokenId",
          "type": "uint256"
        },
        {
          "internalType": "uint256",
          "name": "price",
          "type": "uint256"
        }
      ],
      "name": "putupforSale",
      "outputs": [],
      "stateMutability": "payable",
      "type": "function"
    },
    {
      "inputs": [
        {
          "internalType": "address",
          "name": "from",
          "type": "address"
        },
        {
          "internalType": "address",
          "name": "to",
          "type": "address"
        },
        {
          "internalType": "uint256",
          "name": "tokenId",
          "type": "uint256"
        }
      ],
      "name": "safeTransferFrom",
      "outputs": [],
      "stateMutability": "nonpayable",
      "type": "function"
    },
    {
      "inputs": [
        {
          "internalType": "address",
          "name": "from",
          "type": "address"
        },
        {
          "internalType": "address",
          "name": "to",
          "type": "address"
        },
        {
          "internalType": "uint256",
          "name": "tokenId",
          "type": "uint256"
        },
        {
          "internalType": "bytes",
          "name": "data",
          "type": "bytes"
        }
      ],
      "name": "safeTransferFrom",
      "outputs": [],
      "stateMutability": "nonpayable",
      "type": "function"
    },
    {
      "inputs": [
        {
          "internalType": "address",
          "name": "operator",
          "type": "address"
        },
        {
          "internalType": "bool",
          "name": "approved",
          "type": "bool"
        }
      ],
      "name": "setApprovalForAll",
      "outputs": [],
      "stateMutability": "nonpayable",
      "type": "function"
    },
    {
      "inputs": [
        {
          "internalType": "bytes4",
          "name": "interfaceId",
          "type": "bytes4"
        }
      ],
      "name": "supportsInterface",
      "outputs": [
        {
          "internalType": "bool",
          "name": "",
          "type": "bool"
        }
      ],
      "stateMutability": "view",
      "type": "function"
    },
    {
      "inputs": [],
      "name": "symbol",
      "outputs": [
        {
          "internalType": "string",
          "name": "",
          "type": "string"
        }
      ],
      "stateMutability": "view",
      "type": "function"
    },
    {
      "inputs": [
        {
          "internalType": "uint256",
          "name": "tokenId",
          "type": "uint256"
        }
      ],
      "name": "tokenURI",
      "outputs": [
        {
          "internalType": "string",
          "name": "",
          "type": "string"
        }
      ],
      "stateMutability": "view",
      "type": "function"
    },
    {
      "inputs": [
        {
          "internalType": "address",
          "name": "from",
          "type": "address"
        },
        {
          "internalType": "address",
          "name": "to",
          "type": "address"
        },
        {
          "internalType": "uint256",
          "name": "tokenId",
          "type": "uint256"
        }
      ],
      "name": "transferFrom",
      "outputs": [],
      "stateMutability": "nonpayable",
      "type": "function"
    }
  ],
  "bytecode": "0x60806040526658d15e176280006009553480156200001c57600080fd5b50604080518082018252601081526f4d657461766572736520546f6b656e7360801b6020808301918252835180850190945260048452631351551560e21b9084015281519192916200007191600091620000a2565b50805162000087906001906020840190620000a2565b5050600a80546001600160a01b031916331790555062000185565b828054620000b09062000148565b90600052602060002090601f016020900481019282620000d457600085556200011f565b82601f10620000ef57805160ff19168380011785556200011f565b828001600101855582156200011f579182015b828111156200011f57825182559160200191906001019062000102565b506200012d92915062000131565b5090565b5b808211156200012d576000815560010162000132565b600181811c908216806200015d57607f821691505b602082108114156200017f57634e487b7160e01b600052602260045260246000fd5b50919050565b611fec80620001956000396000f3fe6080604052600436106101145760003560e01c80636352211e116100a0578063a22cb46511610064578063a22cb465146102fa578063b88d4fde1461031a578063c87b56dd1461033a578063e7fb74c71461035a578063e985e9c51461036d57600080fd5b80636352211e1461027f57806368277c581461029f57806370a08231146102b257806372b3b620146102d257806395d89b41146102e557600080fd5b80630f08efe0116100e75780630f08efe0146101ca578063202e3740146101ec57806323b872dd1461020157806342842e0e1461022157806345bdac101461024157600080fd5b806301ffc9a71461011957806306fdde031461014e578063081812fc14610170578063095ea7b3146101a8575b600080fd5b34801561012557600080fd5b50610139610134366004611989565b6103b6565b60405190151581526020015b60405180910390f35b34801561015a57600080fd5b50610163610408565b60405161014591906119fe565b34801561017c57600080fd5b5061019061018b366004611a11565b61049a565b6040516001600160a01b039091168152602001610145565b3480156101b457600080fd5b506101c86101c3366004611a46565b6104c1565b005b3480156101d657600080fd5b506101df6105dc565b6040516101459190611a70565b3480156101f857600080fd5b506101df6107d5565b34801561020d57600080fd5b506101c861021c366004611add565b610a80565b34801561022d57600080fd5b506101c861023c366004611add565b610ab1565b34801561024d57600080fd5b5061027161025c366004611a11565b6000908152600b602052604090206003015490565b604051908152602001610145565b34801561028b57600080fd5b5061019061029a366004611a11565b610acc565b6101c86102ad366004611b19565b610b2c565b3480156102be57600080fd5b506102716102cd366004611b3b565b610bb1565b6102716102e0366004611be2565b610c37565b3480156102f157600080fd5b50610163610c8f565b34801561030657600080fd5b506101c8610315366004611c3b565b610c9e565b34801561032657600080fd5b506101c8610335366004611c77565b610cad565b34801561034657600080fd5b50610163610355366004611a11565b610ce5565b6101c8610368366004611a11565b610df6565b34801561037957600080fd5b50610139610388366004611cf3565b6001600160a01b03918216600090815260056020908152604080832093909416825291909152205460ff1690565b60006001600160e01b031982166380ac58cd60e01b14806103e757506001600160e01b03198216635b5e139f60e01b145b8061040257506301ffc9a760e01b6001600160e01b03198316145b92915050565b60606000805461041790611d26565b80601f016020809104026020016040519081016040528092919081815260200182805461044390611d26565b80156104905780601f1061046557610100808354040283529160200191610490565b820191906000526020600020905b81548152906001019060200180831161047357829003601f168201915b5050505050905090565b60006104a582610eeb565b506000908152600460205260409020546001600160a01b031690565b60006104cc82610acc565b9050806001600160a01b0316836001600160a01b0316141561053f5760405162461bcd60e51b815260206004820152602160248201527f4552433732313a20617070726f76616c20746f2063757272656e74206f776e656044820152603960f91b60648201526084015b60405180910390fd5b336001600160a01b038216148061055b575061055b8133610388565b6105cd5760405162461bcd60e51b815260206004820152603e60248201527f4552433732313a20617070726f76652063616c6c6572206973206e6f7420746f60448201527f6b656e206f776e6572206e6f7220617070726f76656420666f7220616c6c00006064820152608401610536565b6105d78383610f4d565b505050565b606060006105e960075490565b905060008060005b8381101561066d57600b6000610608836001611d77565b815260200190815260200160002060030154600214806106485750600b6000610632836001611d77565b8152602001908152602001600020600301546001145b1561065b57610658600184611d77565b92505b8061066581611d8f565b9150506105f1565b5060008267ffffffffffffffff81111561068957610689611b56565b6040519080825280602002602001820160405280156106ee57816020015b6106db60405180608001604052806000815260200160006001600160a01b0316815260200160008152602001600081525090565b8152602001906001900390816106a75790505b50905060005b848110156107cc576000610709826001611d77565b6000818152600b60205260409020600301549091506002148061073d57506000818152600b60205260409020600301546001145b156107b9576000818152600b602090815260409182902082516080810184528154815260018201546001600160a01b03169281019290925260028101549282019290925260038201546060820152845185908790811061079f5761079f611daa565b60209081029190910101526107b5600186611d77565b9450505b50806107c481611d8f565b9150506106f4565b50949350505050565b606060006107e260075490565b905060008060005b838110156108455733600b6000610802846001611d77565b81526020810191909152604001600020600101546001600160a01b0316141561083357610830600184611d77565b92505b8061083d81611d8f565b9150506107ea565b5060008267ffffffffffffffff81111561086157610861611b56565b6040519080825280602002602001820160405280156108c657816020015b6108b360405180608001604052806000815260200160006001600160a01b0316815260200160008152602001600081525090565b81526020019060019003908161087f5790505b50905060005b848110156107cc5733600b60006108e4846001611d77565b81526020810191909152604001600020600101546001600160a01b03161415610a6e576000610914826001611d77565b6000818152600b602090815260409182902082516080810184528154815260018201546001600160a01b031692810192909252600281015492820192909252600382015460608201528551929350909185908790811061097657610976611daa565b602090810291909101015261098c600186611d77565b94506109c16040518060400160405280601181526020017003a37ba30b624ba32b6a1b7bab73a101d1607d1b81525088610fbb565b6109ef6040518060400160405280600c81526020016b034ba32b6a1b7bab73a101d160a51b81525087610fbb565b610a1e6040518060400160405280600d81526020016c036b9b39739b2b73232b9101d1609d1b81525033611000565b610a6b6040518060600160405280602c8152602001611f8b602c9139600b6000610a49876001611d77565b81526020810191909152604001600020600101546001600160a01b0316611000565b50505b80610a7881611d8f565b9150506108cc565b610a8a3382611045565b610aa65760405162461bcd60e51b815260040161053690611dc0565b6105d78383836110c3565b6105d783838360405180602001604052806000815250610cad565b6000818152600260205260408120546001600160a01b0316806104025760405162461bcd60e51b8152602060048201526018602482015277115490cdcc8c4e881a5b9d985b1a59081d1bdad95b88125160421b6044820152606401610536565b6000828152600b60205260409020600101546001600160a01b03163314610b955760405162461bcd60e51b815260206004820152601c60248201527f4f6e6c79206f776e65722063616e2073656c6c20746865206974656d000000006044820152606401610536565b6000918252600b60205260409091206002600382018190550155565b60006001600160a01b038216610c1b5760405162461bcd60e51b815260206004820152602960248201527f4552433732313a2061646472657373207a65726f206973206e6f7420612076616044820152683634b21037bbb732b960b91b6064820152608401610536565b506001600160a01b031660009081526003602052604090205490565b6000610c47600780546001019055565b6000610c5260075490565b9050610c5e338261125f565b610c6881856113a1565b610c72818461143b565b6000818152600b6020526040902060016003909101559392505050565b60606001805461041790611d26565b610ca9338383611538565b5050565b610cb73383611045565b610cd35760405162461bcd60e51b815260040161053690611dc0565b610cdf84848484611607565b50505050565b6060610cf082610eeb565b60008281526006602052604081208054610d0990611d26565b80601f0160208091040260200160405190810160405280929190818152602001828054610d3590611d26565b8015610d825780601f10610d5757610100808354040283529160200191610d82565b820191906000526020600020905b815481529060010190602001808311610d6557829003601f168201915b505050505090506000610da060408051602081019091526000815290565b9050805160001415610db3575092915050565b815115610de5578082604051602001610dcd929190611e0e565b60405160208183030381529060405292505050919050565b610dee8461163a565b949350505050565b6000818152600b6020526040902060028101546001909101546001600160a01b0316348214610e8f576040805162461bcd60e51b81526020600482015260248101919091527f506c65617365207375626d6974207468652061736b696e67207072696365206960448201527f6e206f7264657220746f20636f6d706c657465207468652070757263686173656064820152608401610536565b6000838152600b60205260408082206001810180546001600160a01b03191633179055600390810155516001600160a01b038316913480156108fc02929091818181858888f19350505050158015610cdf573d6000803e3d6000fd5b6000818152600260205260409020546001600160a01b0316610f4a5760405162461bcd60e51b8152602060048201526018602482015277115490cdcc8c4e881a5b9d985b1a59081d1bdad95b88125160421b6044820152606401610536565b50565b600081815260046020526040902080546001600160a01b0319166001600160a01b0384169081179091558190610f8282610acc565b6001600160a01b03167f8c5be1e5ebec7d5bd14f71427d1e84f3dd0314c0f7b2291e5b200ac8c7c3b92560405160405180910390a45050565b610ca98282604051602401610fd1929190611e3d565b60408051601f198184030181529190526020810180516001600160e01b03166309710a9d60e41b1790526116ae565b610ca98282604051602401611016929190611e5f565b60408051601f198184030181529190526020810180516001600160e01b031663319af33360e01b1790526116ae565b60008061105183610acc565b9050806001600160a01b0316846001600160a01b0316148061109857506001600160a01b0380821660009081526005602090815260408083209388168352929052205460ff165b80610dee5750836001600160a01b03166110b18461049a565b6001600160a01b031614949350505050565b826001600160a01b03166110d682610acc565b6001600160a01b03161461113a5760405162461bcd60e51b815260206004820152602560248201527f4552433732313a207472616e736665722066726f6d20696e636f72726563742060448201526437bbb732b960d91b6064820152608401610536565b6001600160a01b03821661119c5760405162461bcd60e51b8152602060048201526024808201527f4552433732313a207472616e7366657220746f20746865207a65726f206164646044820152637265737360e01b6064820152608401610536565b6111a7600082610f4d565b6001600160a01b03831660009081526003602052604081208054600192906111d0908490611e89565b90915550506001600160a01b03821660009081526003602052604081208054600192906111fe908490611d77565b909155505060008181526002602052604080822080546001600160a01b0319166001600160a01b0386811691821790925591518493918716917fddf252ad1be2c89b69c2b068fc378daa952ba7f163c4a11628f55a4df523b3ef91a4505050565b6001600160a01b0382166112b55760405162461bcd60e51b815260206004820181905260248201527f4552433732313a206d696e7420746f20746865207a65726f20616464726573736044820152606401610536565b6000818152600260205260409020546001600160a01b03161561131a5760405162461bcd60e51b815260206004820152601c60248201527f4552433732313a20746f6b656e20616c7265616479206d696e746564000000006044820152606401610536565b6001600160a01b0382166000908152600360205260408120805460019290611343908490611d77565b909155505060008181526002602052604080822080546001600160a01b0319166001600160a01b03861690811790915590518392907fddf252ad1be2c89b69c2b068fc378daa952ba7f163c4a11628f55a4df523b3ef908290a45050565b6000828152600260205260409020546001600160a01b031661141c5760405162461bcd60e51b815260206004820152602e60248201527f45524337323155524953746f726167653a2055524920736574206f66206e6f6e60448201526d32bc34b9ba32b73a103a37b5b2b760911b6064820152608401610536565b600082815260066020908152604090912082516105d7928401906118da565b6000811161148b5760405162461bcd60e51b815260206004820152601c60248201527f5072696365206d757374206265206174206c65617374203120776569000000006044820152606401610536565b604080516080810182528381523360208083018281528385018681526001606080870182815260008b8152600b875289902097518855935187830180546001600160a01b0319166001600160a01b0390921691909117905591516002870155915160039095019490945584519283529082018590529281019290925283917fd0058778bf0543e8ed74ab7fc87f778020d312d616ad6f98b80bc8eb521589bb910160405180910390a25050565b816001600160a01b0316836001600160a01b0316141561159a5760405162461bcd60e51b815260206004820152601960248201527f4552433732313a20617070726f766520746f2063616c6c6572000000000000006044820152606401610536565b6001600160a01b03838116600081815260056020908152604080832094871680845294825291829020805460ff191686151590811790915591519182527f17307eab39ab6107e8899845ad3d59bd9653f200f220920489ca2b5937696c31910160405180910390a3505050565b6116128484846110c3565b61161e848484846116cf565b610cdf5760405162461bcd60e51b815260040161053690611ea0565b606061164582610eeb565b600061165c60408051602081019091526000815290565b9050600081511161167c57604051806020016040528060008152506116a7565b80611686846117dc565b604051602001611697929190611e0e565b6040516020818303038152906040525b9392505050565b80516a636f6e736f6c652e6c6f67602083016000808483855afa5050505050565b60006001600160a01b0384163b156117d157604051630a85bd0160e11b81526001600160a01b0385169063150b7a0290611713903390899088908890600401611ef2565b602060405180830381600087803b15801561172d57600080fd5b505af192505050801561175d575060408051601f3d908101601f1916820190925261175a91810190611f2f565b60015b6117b7573d80801561178b576040519150601f19603f3d011682016040523d82523d6000602084013e611790565b606091505b5080516117af5760405162461bcd60e51b815260040161053690611ea0565b805181602001fd5b6001600160e01b031916630a85bd0160e11b149050610dee565b506001949350505050565b6060816118005750506040805180820190915260018152600360fc1b602082015290565b8160005b811561182a578061181481611d8f565b91506118239050600a83611f62565b9150611804565b60008167ffffffffffffffff81111561184557611845611b56565b6040519080825280601f01601f19166020018201604052801561186f576020820181803683370190505b5090505b8415610dee57611884600183611e89565b9150611891600a86611f76565b61189c906030611d77565b60f81b8183815181106118b1576118b1611daa565b60200101906001600160f81b031916908160001a9053506118d3600a86611f62565b9450611873565b8280546118e690611d26565b90600052602060002090601f016020900481019282611908576000855561194e565b82601f1061192157805160ff191683800117855561194e565b8280016001018555821561194e579182015b8281111561194e578251825591602001919060010190611933565b5061195a92915061195e565b5090565b5b8082111561195a576000815560010161195f565b6001600160e01b031981168114610f4a57600080fd5b60006020828403121561199b57600080fd5b81356116a781611973565b60005b838110156119c15781810151838201526020016119a9565b83811115610cdf5750506000910152565b600081518084526119ea8160208601602086016119a6565b601f01601f19169290920160200192915050565b6020815260006116a760208301846119d2565b600060208284031215611a2357600080fd5b5035919050565b80356001600160a01b0381168114611a4157600080fd5b919050565b60008060408385031215611a5957600080fd5b611a6283611a2a565b946020939093013593505050565b602080825282518282018190526000919060409081850190868401855b82811015611ad057815180518552868101516001600160a01b03168786015285810151868601526060908101519085015260809093019290850190600101611a8d565b5091979650505050505050565b600080600060608486031215611af257600080fd5b611afb84611a2a565b9250611b0960208501611a2a565b9150604084013590509250925092565b60008060408385031215611b2c57600080fd5b50508035926020909101359150565b600060208284031215611b4d57600080fd5b6116a782611a2a565b634e487b7160e01b600052604160045260246000fd5b600067ffffffffffffffff80841115611b8757611b87611b56565b604051601f8501601f19908116603f01168101908282118183101715611baf57611baf611b56565b81604052809350858152868686011115611bc857600080fd5b858560208301376000602087830101525050509392505050565b60008060408385031215611bf557600080fd5b823567ffffffffffffffff811115611c0c57600080fd5b8301601f81018513611c1d57600080fd5b611c2c85823560208401611b6c565b95602094909401359450505050565b60008060408385031215611c4e57600080fd5b611c5783611a2a565b915060208301358015158114611c6c57600080fd5b809150509250929050565b60008060008060808587031215611c8d57600080fd5b611c9685611a2a565b9350611ca460208601611a2a565b925060408501359150606085013567ffffffffffffffff811115611cc757600080fd5b8501601f81018713611cd857600080fd5b611ce787823560208401611b6c565b91505092959194509250565b60008060408385031215611d0657600080fd5b611d0f83611a2a565b9150611d1d60208401611a2a565b90509250929050565b600181811c90821680611d3a57607f821691505b60208210811415611d5b57634e487b7160e01b600052602260045260246000fd5b50919050565b634e487b7160e01b600052601160045260246000fd5b60008219821115611d8a57611d8a611d61565b500190565b6000600019821415611da357611da3611d61565b5060010190565b634e487b7160e01b600052603260045260246000fd5b6020808252602e908201527f4552433732313a2063616c6c6572206973206e6f7420746f6b656e206f776e6560408201526d1c881b9bdc88185c1c1c9bdd995960921b606082015260800190565b60008351611e208184602088016119a6565b835190830190611e348183602088016119a6565b01949350505050565b604081526000611e5060408301856119d2565b90508260208301529392505050565b604081526000611e7260408301856119d2565b905060018060a01b03831660208301529392505050565b600082821015611e9b57611e9b611d61565b500390565b60208082526032908201527f4552433732313a207472616e7366657220746f206e6f6e20455243373231526560408201527131b2b4bb32b91034b6b83632b6b2b73a32b960711b606082015260800190565b6001600160a01b0385811682528416602082015260408101839052608060608201819052600090611f25908301846119d2565b9695505050505050565b600060208284031215611f4157600080fd5b81516116a781611973565b634e487b7160e01b600052601260045260246000fd5b600082611f7157611f71611f4c565b500490565b600082611f8557611f85611f4c565b50069056fe746f74616c4974656d436f6964546f4d61726b65744974656d5b69202b20315d2e6f776e6572756e74203a20a2646970667358221220cfad00cd9508586087d52d966bcf4b71699d7b9aa2f5f52cf296cf81f22cb7e064736f6c63430008090033",
  "linkReferences": {},
  "deployedLinkReferences": {}
}